:100000000C946B010C9493010C9493010C94930148
:100010000C9493010C9493010C9493010C94930110
:100020000C9493010C9493010C9475270C9458260E
:100030000C9493010C9493010C9493010C949301F0
:100040000C9493010C9493010C9493010C949301E0
:100050000C9493010C9493010C9493010C94E12261
:100060000C9493010C9493010C9493010C949301C0
:100070000C9493010C9493010C9493010C949301B0
:100080000C9493010C9493010C9493010C949301A0
:100090000C947E210C9493010C9493010C94930185
:1000A0000C9493010C9493010C949301F023F3238B
:1000B000E223E623EC23142414241424F723FB2343
:1000C000FF230524092414240F242F2A2D2B132D5C
:1000D0003D5B5D5C203B27602C2E2F5F2B7B7D7C66
:1000E0007E3A227E3C3E3F21402324255E262A285C
:1000F000290000000200090F0000030401000C00A9
:1001000000000000000000000000000000000004EB
:100110000802011040804010204080408008020406
:100120000180402010020110801020404020040473
:100130000404040304050202020204030202020290
:100140000606060606060404020202040400000075
:10015000002300260029002C002F000000000025AD
:100160000028002B002E0031000000000024002792
:10017000002A002D00300000C11201100100000013
:10018000084F1B049200010102000112011001003E
:100190000000084F1B04920001010200015370612E
:1001A000726B46756E00537061726B46756E2050AF
:1001B000726F204D6963726F000403090400000030
:1001C00000000000002A2B280000000000000000B2
:1001D000000000000000000000000000002C9EB4A1
:1001E000A0A1A2A434A6A7A5AE362D3738271E1F7E
:1001F00020212223242526B333B62EB7B89F848529
:10020000868788898A8B8C8D8E8F90919293949516
:10021000969798999A9B9C9D2F3130A3AD350405F4
:10022000060708090A0B0C0D0E0F101112131415F6
:10023000161718191A1B1C1DAFB1B0B50009040020
:10024000000103010200092101010001223400071D
:1002500005810308000A09040000010301010009E7
:100260002101010001222D000705810308000A0574
:10027000010906A101050719E029E7150025017507
:100280000195088102950175088103950675081589
:100290000025650507190029658100C005010902CF
:1002A000A1010901A1000509190129031500250172
:1002B00095037501810295017505810305010930DA
:1002C000093109381581257F750895038106C0C05D
:1002D000810ED2202C2911241FBECFEFDAE0DEBF21
:1002E000CDBF11E0A0E0B1E0E2E9F2E502C0059087
:1002F0000D92A43FB107D9F723E0A4EFB1E001C00C
:100300001D92A03DB207E1F712E0C6EDD2E004C0B5
:100310002297FE010E943C29C03DD107C9F70E94E7
:10032000D6240C9447290C94000080E00895089589
:1003300080E0089581E0089587EE90E008958BEDC8
:1003400090E008958FEC90E008958AEC90E0089595
:10035000860F911D860F911DFC01518B408B81E012
:100360000895860F911D860F911DFC0156874587C4
:1003700081E00895860F911D860F911DFC0156871F
:10038000458781E00895CF93DF93EC018C819D81B7
:10039000DC01ED91FC910480F581E02D6E810995E1
:1003A0001F86188A81E08A8B1E821B8A1C8A1D8AFE
:1003B0001E8A1F8A80E0DF91CF910895FC0186811B
:1003C000089581E0633009F080E0089581E06230B3
:1003D00009F080E00895860F911D860F911DFC01A4
:1003E000858596850895FC0187890895EF92FF928F
:1003F000CF93DF93FC01E7012289223029F167873F
:10040000408B8B8183708330F9F48A8187FF1CC015
:100410008E81908D981708F4808F822F90E0DC01F8
:10042000AA0FBB1FA80FB91FAE0FBF1F8A818F7005
:1004300017968C9317978C8118968C93189784E055
:1004400019968C932F5F228BDF91CF91FF90EF90C5
:100450000895EF92FF920F9302970E94F6010F9179
:10046000FF90EF900895CF93DF93EC018C819D81F5
:10047000DC01ED91FC910480F581E02D6E81099500
:100480001F86188A81E08A8B1E821B8A1C8A1D8A1D
:100490001E8A1F8A80E0DF91CF910895FC0186813A
:1004A000089581E0633009F080E0089581E06130D3
:1004B00009F080E00895860F911D860F911DFC01C3
:1004C000858596850895FC0187890895EF92FF92AE
:1004D000CF93DF93FC01E7012289223029F167875E
:1004E000408B8B8183708330F9F48A8187FF1CC035
:1004F0008E81908D981708F4808F822F90E0DC0118
:10050000AA0FBB1FA80FB91FAE0FBF1F8A818F7024
:1005100017968C9317978C8118968C93189784E074
:1005200019968C932F5F228BDF91CF91FF90EF90E4
:100530000895EF92FF920F9302970E9466020F9127
:10054000FF90EF900895CF93DF93EC018C819D8114
:10055000DC01ED91FC910480F581E02D6E8109951F
:100560001C8A1D8A81E08F8B1E82188E198E1A8E2E
:100570001B8E1C8E80E0DF91CF910895FC01868157
:10058000089581E0633009F080E0089581E06330F0
:1005900009F080E00895860F911D860F911DFC01E2
:1005A000808991890895FC01848D0895EF92FF92CE
:1005B000CF93DF93FC01E7012789233029F1648B76
:1005C000458B8B8183708330F9F48A8187FF1CC04F
:1005D0008E81958D981708F4858F822F90E0DC012D
:1005E000AA0FBB1FA80FB91FAE0FBF1F8A818F7044
:1005F00017968C9317978C8118968C93189784E094
:1006000019968C932F5F278BDF91CF91FF90EF90FE
:100610000895EF92FF920F9302970E94D6020F91D6
:10062000FF90EF9008950895CF92DF92EF92FF929E
:100630000F93CF93DF931F92CDB7DEB7FC01CB01B1
:100640002285473499F0433551F04933B9F421FB01
:10065000332730F93095422F30FB41F90EC0322F4D
:1006600031703095422F30FB40F907C022FB332711
:1006700030F93095422F30FB42F9428732852317FB
:1006800089F0009779F039839E012F5F3F4F690110
:10069000EE24E394F12C00E022E040E060E00E94D0
:1006A0006E1B01C080E00F90DF91CF910F91FF9002
:1006B000EF90DF90CF90089520E0FB0142816181AF
:1006C0008FEC93E00C94332861E08FEC93E00C9472
:1006D0005E2862E08FEC93E00C945E2864E08FEC7F
:1006E00093E00C945E2861E08FEC93E00C94592821
:1006F00062E08FEC93E00C94592864E08FEC93E077
:100700000C9459289FB7F8942091AF038091AD03C2
:10071000213019F48DBB9FBF08958FBF0895CF92EC
:10072000DF92EF92FF920F931F93CF93DF93EC0131
:100730007B01C42ED22E83E0821740F4F80123817E
:1007400040E060E08FEC93E00E9433282D2D4C2D8B
:10075000B701CE010E94FE19DF91CF911F910F9139
:10076000FF90EF90DF90CF900895CF92DF92EF92BD
:10077000FF920F931F93CF93DF93CDB7DEB76297AE
:100780000FB6F894DEBF0FBECDBF6C01DC015796EB
:100790008C91882369F00E942B23F6010389148928
:1007A00025893689601B710B820B930B97FF02C062
:1007B000F12C39C0F601838590E09A8B898BE12C6E
:1007C0008E010F5F1F4F9E012F5E3F4F4285668156
:1007D000848195810E940B17F82E811118C02989F8
:1007E0003A892330310598F0D6011D968D919C9160
:1007F0001E97009761F0DC01ED91FC910190F08172
:10080000E02D8E010F5F1F4F40E0B60109950E9459
:100810002B23F601208D620F711D811D911D638BAD
:10082000748B858B968B8F2D62960FB6F894DEBFF6
:100830000FBECDBFDF91CF911F910F91FF90EF9031
:10084000DF90CF900895CF92DF92EF92FF920F93B7
:100850001F93CF93DF93CDB7DEB762970FB6F894AF
:10086000DEBF0FBECDBF6C01DC0157968C91882393
:1008700069F00E942B23F6010389148925893689A2
:10088000601B710B820B930B97FF02C0F12C39C0D8
:10089000F601838590E09A8B898BE12C8E010F5FA6
:1008A0001F4F9E012F5E3F4F428566818481958157
:1008B0000E940B17F82E811118C029893A8923301C
:1008C000310598F0D6011D968D919C911E97009749
:1008D00061F0DC01ED91FC910190F081E02D8E0141
:1008E0000F5F1F4F40E0B60109950E942B23F601D0
:1008F000208D620F711D811D911D638B748B858B03
:10090000968B8F2D62960FB6F894DEBF0FBECDBFCB
:10091000DF91CF911F910F91FF90EF90DF90CF90DB
:1009200008958F929F92AF92BF92CF92DF92EF92F3
:10093000FF920F931F93CF93DF93CDB7DEB76297EC
:100940000FB6F894DEBF0FBECDBF6C01DC015C9624
:100950008C91882309F458C00E942B23F601008D46
:10096000118D228D338D601B710B820B930B97FDC4
:100970004BC04601A12CB12CF601EA0DFB1D83856D
:1009800090E09A8B898BE12C8E010F5F1F4F9E01A7
:100990002F5E3F4F4285D60116966C91169714969E
:1009A0008D919C9115970E940B17F82E811113C001
:1009B00029893A892330310570F0F40180899189C1
:1009C000009749F0DC01ED91FC910190F081E02D60
:1009D00040E0B6010995B3E0AB0EB11CE2E08E0E2B
:1009E000911CF6E0AF16B10439F60E942B23D60114
:1009F0005D962C91620F711D811D911DF601608F16
:100A0000718F828F938F01C0F12C8F2D62960FB65C
:100A1000F894DEBF0FBECDBFDF91CF911F910F9134
:100A2000FF90EF90DF90CF90BF90AF909F908F900E
:100A300008953F924F925F926F927F928F929F9212
:100A4000AF92BF92CF92DF92EF92FF920F931F93DC
:100A5000CF93DF93CDB7DEB7EC970FB6F894DEBF38
:100A60000FBECDBF5C01462E342E522EDC011496F3
:100A7000CD90DC90159716968C911697811134C104
:100A80005D961C92D601ED91FC910190F081E02DD4
:100A900060E0C60109957C01009711F486ED29C13B
:100AA000FC01808091808114910409F41FC13501FB
:100AB000F7E06F0E711CDC0111967C926E92149619
:100AC0005C928E01065D1F4F28E030E040E060E060
:100AD000F501848195810E940A168CAF8111F7C0BF
:100AE0001AA5D7018D929C92D601ED91FC910280BE
:100AF000F381E02D232D40E0642DC6010995F50119
:100B00008683882309F4F4C099A99087282F40E0B0
:100B100060E0848195810E94B7168CAFD601ED917B
:100B2000FC91D70114961C92882359F00480F5811A
:100B3000E02DD50116966C91C6010995F501168236
:100B4000D1C00190F081E02DD50116966C91C601BF
:100B50000995009709F4A2CF133108F012E1FC01C6
:100B60005482112389F0212F30E08E01065D1F4F42
:100B700040E0D50116966C91169714968D919C9134
:100B800015970E940A168CAF8CAD8111A3C0EBACF7
:100B90008CE091E09A838983C50102969C838B83C4
:100BA0001E86188A1F8619A21AA21BA2CE01419680
:100BB0009F838E83998788872D812B872A879D879E
:100BC0008C8781E089A7F12CFE1481F08E010F5FE4
:100BD0001F4F2F2D40E0F5016681848195810E9491
:100BE0005816D50157968C91833039F4F5018789D1
:100BF000833029F081ED8CAF6DC0F394E5CF930184
:100C000043E06681848195810E9458118CAF68EE23
:100C100073E080E090E00E945A23F501248940E0CF
:100C20006681848195810E94E6168CAF811152C045
:100C300068EE73E080E090E00E945A23E12CF12CF2
:100C40000EE111E0D5015E964C916E2DC5010E941A
:100C5000C61B8CAF81113EC020E040E06E2DC50167
:100C60000E949C1B8CAF1A830983AE014F5F5F4FBC
:100C7000B701C5010E942B1B8CAFBFEFEB1AFB0A1B
:100C8000E2E0EE16F104F1F680E28CAF8CAD882341
:100C9000C1F090E0959587958CAFCE01CC966C0114
:100CA000EE24E394F12C00E022E040E060E0C50196
:100CB0000E946E1B69E170E080E090E00E945A2380
:100CC000E5CF81E0D5015C968C9380E012C0F701FE
:100CD00091828082D501ED91FC910480F581E02D17
:100CE000C50109958CAD05C089ED03C087ED01C034
:100CF00084EDEC960FB6F894DEBF0FBECDBFDF914A
:100D0000CF911F910F91FF90EF90DF90CF90BF9008
:100D1000AF909F908F907F906F905F904F903F909B
:100D200008953F924F925F926F927F928F929F921F
:100D3000AF92BF92CF92DF92EF92FF920F931F93E9
:100D4000CF93DF93CDB7DEB7EC970FB6F894DEBF45
:100D50000FBECDBF5C01462E342E522EDC01149600
:100D6000CD90DC90159716968C91169781113AC10B
:100D700058961C92D601ED91FC910190F081E02DE6
:100D800060E0C60109957C01009711F486ED2FC142
:100D9000FC01808091808114910409F425C1350102
:100DA000F7E06F0E711CDC0111967C926E92149626
:100DB0005C928E01065D1F4F28E030E040E060E06D
:100DC000F501848195810E940A168CAF8111FDC0C6
:100DD0001AA5D7018D929C92D601ED91FC910280CB
:100DE000F381E02D232D40E0642DC6010995F50126
:100DF0008683882309F4FAC099A99087282F40E0B8
:100E000060E0848195810E94B7168CAFD601ED9188
:100E1000FC91D70114961C92882359F00480F58127
:100E2000E02DD50116966C91C6010995F501168243
:100E3000D7C00190F081E02DD50116966C91C601C6
:100E40000995009709F4A2CF133108F012E1FC01D3
:100E50005482112389F0212F30E08E01065D1F4F4F
:100E600040E0D50116966C91169714968D919C9141
:100E700015970E940A168CAF8CAD8111A9C04BAC9E
:100E8000512CB2E1CB2EB1E0DB2E4501B2E08B0E4E
:100E9000911C7E01E1E1EE0EF11C541449F1DA825D
:100EA000C9829C828B821E86188A1F8619A21AA26A
:100EB0001BA219A6FF82EE82F986E8868D818B87B8
:100EC0008A87FD86EC868E010F5F1F4F252D40E03F
:100ED000D50116966C91169714968D919C91159745
:100EE0000E945816F5018289823011F05394D5CFB3
:100EF000D50152968C91823019F081ED8CAF68C08B
:100F0000930142E0F5016681848195810E94581128
:100F10008CAF68EE73E080E090E00E945A23D50128
:100F20001F962C911F9740E016966C911697149679
:100F30008D919C9115970E94E6168CAF811148C047
:100F400068EE73E080E090E00E945A23F501418D45
:100F500060E0C5010E94C61B8CAF811139C020E042
:100F600040E060E0C5010E949C1B8CAF8EE191E0E7
:100F70009A838983AE014F5F5F4F60E070E0C501E7
:100F80000E942B1B80E28CAF8CAD8823C1F090E0D7
:100F9000959587958CAFCE01CC966C01EE24E394A9
:100FA000F12C00E022E040E060E0C5010E946E1BF1
:100FB00069E170E080E090E00E945A23E5CF81E093
:100FC000D50157968C9380E012C0F7019182808200
:100FD000D501ED91FC910480F581E02DC5010995C5
:100FE0008CAD05C089ED03C087ED01C084EDEC96A2
:100FF0000FB6F894DEBF0FBECDBFDF91CF911F912A
:101000000F91FF90EF90DF90CF90BF90AF909F90A7
:101010008F907F906F905F904F903F9008953F9298
:101020004F925F926F927F928F929F92AF92BF92F8
:10103000CF92DF92EF92FF920F931F93CF93DF93A4
:10104000CDB7DEB7EB970FB6F894DEBF0FBECDBFBE
:101050007C01462E342E522EDC011496AD90BC90AD
:10106000159716968C911697811113C158961C925C
:10107000D501ED91FC910190F081E02D60E0C5017A
:1010800009956C01009711F486ED0DC1FC0180807B
:1010900091808114910409F4FEC03701F7E06F0ECE
:1010A000711CDC0111967C926E9214965C928E01FA
:1010B000065D1F4F28E030E040E060E0F7018481EA
:1010C00095810E940A16182F8111E9C01AA5D60130
:1010D0008D929C92D501ED91FC910280F381E02DDF
:1010E000232D40E0642DC5010995F70186838823EF
:1010F00009F4D3C099A99087282F40E060E084814B
:1011000095810E94B716982ED501ED91FC91D601DC
:1011100014961C92882361F00480F581E02DD7019C
:1011200016966C91C5010995F7011682892DBBC0F1
:101130000190F081E02DD70116966C91C5010995BB
:10114000009709F4A1CF133108F012E1FC01548299
:1011500011110FC04BAC512C18E1A12E11E0B12E92
:101160004701F2E08F0E911C6E0181E1C80ED11C87
:1011700039C0212F30E08E01065D1F4F40E0D701BE
:1011800016966C91169714968D919C9115970E94C6
:101190000A16182F811173C0DDCFBA82A9829C82F2
:1011A0008B821E86188A1F8619A21AA21BA219A654
:1011B000DF82CE82D986C8868D818B878A87DD863D
:1011C000CC868E010F5F1F4F252D40E0F701668111
:1011D000848195810E945816D70152968C91823055
:1011E00019F053945410D9CFF7018289823009F055
:1011F00045C0930142E06681848195810E94581127
:1012000068EE73E080E090E00E945A23D7011F96B9
:101210002C911F9740E016966C91169714968D911D
:101220009C9115970E94E616182F811128C068EE30
:1012300073E080E090E00E945A23F701418D60E066
:10124000C7010E94C61B182F811119C020E040E081
:1012500060E0C7010E949C1B8EE191E09A83898324
:10126000AE014F5F5F4F60E070E0C7010E942B1B33
:1012700081E0D70157968C9380E015C011EDD7011E
:10128000ED91FC910480F581E02DC7010995812F36
:101290000AC089ED08C087ED06C084ED04C0F601E0
:1012A00091828082ECCFEB960FB6F894DEBF0FBE32
:1012B000CDBFDF91CF911F910F91FF90EF90DF9005
:1012C000CF90BF90AF909F908F907F906F905F90E6
:1012D0004F903F9008952091AF03222399F03FB79C
:1012E000F8942091AF03213059F42DB32093AD032E
:1012F0004DB32091AE03209524232DBB3FBF02C0E8
:101300003093AD038CBD9DBD08959C01E0E0F0E0FD
:10131000D901AA5ABF4F4D915C91452B49F4BB9618
:10132000EE0FFF1FE80FF91F7183608380E00895BF
:1013300031962E5F3F4FE031F10551F783ED08956F
:10134000CF93DF93FC01DA018281882319F0813089
:10135000D9F01FC03483238381E0828315C02D918F
:101360003C911197232BA9F0019794838383EB0180
:10137000888199810196998388838D919C91119799
:10138000019711969C938E9383819481009739F7EE
:10139000128281E023813481232B09F080E0DF91E8
:1013A000CF9108952F923F924F925F926F927F92CA
:1013B0008F929F92AF92BF92CF92DF92EF92FF9265
:1013C0000F931F93CF93DF9300D000D0CDB7DEB73C
:1013D0006C017C836B835A8349834C0180E1880EC6
:1013E000911C5601A7E0AA0EB11C332433942601A8
:1013F000BBE04B0E511C3601E2E16E0E711C33E076
:10140000232E12E08B819C81892B09F4D7C0D60151
:1014100090968C91823061F128F4882341F08130DC
:1014200079F0F0CF833041F18430D1F1EBCFF60188
:10143000148385819681908787831287118730A2D4
:10144000AE014D5F5F4FBE016F5F7F4FC5010E94D0
:10145000F61A882309F4B2C0D6011596ED91FC91D5
:101460001697808191968C939197818192968C9317
:10147000F6017682658220A2D60192968C9192978F
:10148000843011F493961C92F60121A122502483FA
:1014900085819681908787832287218784E080A336
:1014A000D60192968C918430B1F0853009F442C017
:1014B000823009F06BC0AE014D5F5F4FBE016F5FC0
:1014C0007F4FC5010E94F61A882309F477C0F60100
:1014D000858984A36BC0AE014D5F5F4FBE016F5F16
:1014E0007F4FC5010E94F61A882309F467C0D60110
:1014F00055968C915597833009F058C056968C912B
:101500005697813009F052C098969C9198975796BB
:101510008C91992321F0882309F448C003C08230BC
:1015200009F044C0F60133A2928996A3938997A348
:1015300085A33CC0AE014D5F5F4FBE016F5F7F4F23
:10154000C5010E94F61A8823C9F1D60193968C91A1
:101550009397882359F112968D919C911397009738
:1015600029F1DC01ED91FC910190F081E02D7401F5
:10157000D60195960C91959797962C91979796965C
:101580004C91969794966C91099510C0F60121A103
:1015900030E022503109AE014D5F5F4FBE016F5FF9
:1015A0007F4FC2010E94A009882341F0D601169600
:1015B0009C928E92159790961C9224CF0F900F902C
:1015C0000F900F90DF91CF911F910F91FF90EF90AF
:1015D000DF90CF90BF90AF909F908F907F906F9053
:1015E0005F904F903F902F9008952F923F924F928F
:1015F0005F926F927F928F929F92AF92BF92CF92A3
:10160000DF92EF92FF920F931F93CF93DF9300D05F
:1016100000D0CDB7DEB76C017C836B835A834983DE
:101620004C0180E1880E911C5601A7E0AA0EB11C66
:10163000332433942601BBE04B0E511C3601E2E10A
:101640006E0E711C43E0242E12E08B819C81892B4D
:1016500009F4D7C0D60190968C91823061F128F4BC
:10166000882341F0813079F0F0CF833041F184302C
:10167000D1F1EBCFF6011483858196819087878322
:101680001287118730A2AE014D5F5F4FBE016F5FC1
:101690007F4FC5010E94F61A882309F4B2C0D60113
:1016A0001596ED91FC911697808191968C93919768
:1016B000818192968C93F6017682658220A2D60172
:1016C00092968C919297843011F493961C92F60125
:1016D00021A1225024838581968190878783228748
:1016E000218784E080A3D60192968C918430B1F05A
:1016F000853009F442C0823009F06BC0AE014D5F05
:101700005F4FBE016F5F7F4FC5010E94F61A8823AD
:1017100009F477C0F601858984A36BC0AE014D5FE3
:101720005F4FBE016F5F7F4FC5010E94F61A88238D
:1017300009F467C0D60155968C915597833009F00E
:1017400058C056968C915697813009F052C09896A1
:101750009C91989757968C91992321F0882309F4AE
:1017600048C003C0813009F044C0F60133A2928919
:1017700096A3938997A385A33CC0AE014D5F5F4FAD
:10178000BE016F5F7F4FC5010E94F61A8823C9F121
:10179000D60193968C919397882359F112968D9147
:1017A0009C911397009729F1DC01ED91FC91019038
:1017B000F081E02D7401D60195960C91959797963E
:1017C0002C91979796964C91969794966C91099533
:1017D00010C0F60121A130E022503109AE014D5F69
:1017E0005F4FBE016F5F7F4FC2010E94A009882337
:1017F00041F0D60116969C928E92159790961C9267
:1018000024CF0F900F900F900F90DF91CF911F91E9
:101810000F91FF90EF90DF90CF90BF90AF909F908F
:101820008F907F906F905F904F903F902F90089592
:101830002F923F924F925F926F927F928F929F92E0
:10184000AF92BF92CF92DF92EF92FF920F931F93CE
:10185000CF93DF9300D000D0CDB7DEB76C017C838F
:101860006B835A8349834C0180E1880E911C560199
:10187000A7E0AA0EB11C332433942601BBE04B0E23
:10188000511C3601E2E16E0E711C53E0252E12E070
:101890008B819C81892B09F4D7C0D60190968C91BD
:1018A000823061F128F4882341F0813079F0F0CF63
:1018B000833041F18430D1F1EBCFF601148385817F
:1018C0009681908787831287118730A2AE014D5F82
:1018D0005F4FBE016F5F7F4FC5010E94F61A8823DC
:1018E00009F4B2C0D6011596ED91FC91169780814E
:1018F00091968C939197818192968C93F601768242
:10190000658220A2D60192968C919297843011F430
:1019100093961C92F60121A1225024838581968101
:10192000908787832287218784E080A3D6019296BF
:101930008C918430B1F0853009F442C0823009F0D6
:101940006BC0AE014D5F5F4FBE016F5F7F4FC50142
:101950000E94F61A882309F477C0F601858984A3CA
:101960006BC0AE014D5F5F4FBE016F5F7F4FC50122
:101970000E94F61A882309F467C0D60155968C9107
:101980005597833009F058C056968C915697813000
:1019900009F052C098969C91989757968C919923EC
:1019A00021F0882309F448C003C0833009F044C003
:1019B000F60133A2928996A3938997A385A33CC08D
:1019C000AE014D5F5F4FBE016F5F7F4FC5010E944B
:1019D000F61A8823C9F1D60193968C9193978823A0
:1019E00059F112968D919C911397009729F1DC0182
:1019F000ED91FC910190F081E02D7401D601959656
:101A00000C91959797962C91979796964C919697BF
:101A100094966C91099510C0F60121A130E02250F6
:101A20003109AE014D5F5F4FBE016F5F7F4FC20155
:101A30000E94A009882341F0D60116969C928E92AE
:101A4000159790961C9224CF0F900F900F900F90A7
:101A5000DF91CF911F910F91FF90EF90DF90CF908A
:101A6000BF90AF909F908F907F906F905F904F90BE
:101A70003F902F9008958091E102882321F080917A
:101A8000E002882321F089E692E00C94051908957C
:101A9000CF93DF9362E084E10E94152462E083E14A
:101AA0000E94152462E082E00E94152484E10E94D5
:101AB0008424EC0183E10E948424CD2B29F4892B1A
:101AC00041F482E090E007C082E00E948424892BE8
:101AD000C1F781E090E0DF91CF9108952E9A0895AB
:101AE000CF93C82F80E591E00E946B092E98CEBD60
:101AF00000000DB407FEFDCF8EB51EBC00000DB476
:101B000007FEFDCFCEB50E946E0D8091AF0381110F
:101B10000E9482038C2FCF9108951F93CF93DF9360
:101B20001F92CDB7DEB7182F80E591E069830E9440
:101B30006B092E98812F82608EBD69810DB407FEDE
:101B4000FDCF8EB56EBD0DB407FEFDCF8EB50E94E4
:101B50006E0D8091AF03882331F00F90DF91CF910C
:101B60001F910C9482030F90DF91CF911F910895E4
:101B700088EF0E94700D807C8034A1F018F48823D7
:101B800001F10895803819F0803CB9F0089588ED8E
:101B90000E94700D81FD0BC069EC88ED0E948D0DD7
:101BA00082E00CC088ED0E94700D81FDF5CF6BECDA
:101BB00088ED0E948D0D83E001C081E08093F401E7
:101BC000089561ED88ED0E948D0D1092F401089545
:101BD0000F931F93CF93DF938C01269A0E946E0D73
:101BE0000E94AB22209A289A259868E188E80E94F2
:101BF0008D0D60E288E70E948D0D60E088E70E940D
:101C00008D0DC0E0D0E088E60E94700D219680FD29
:101C100006C0CF3F8FEFD807B1F78FEF1DC061EC43
:101C200088ED0E948D0D60E680ED0E948D0D64E0D0
:101C300088EE0E948D0D88EE0E94700D82FFFBCF12
:101C4000C8010E94B80D60E288EC0E948D0D61E031
:101C500080E80E948D0D80E0DF91CF911F910F9160
:101C6000089562E084E10E94152462E083E10E940D
:101C7000152484E10E94842421E0892B09F020E0CE
:101C80002093E10283E10E94842421E0892B09F062
:101C900020E02093E0028091E102882399F0222342
:101CA00029F089EE92E00E948C200CC069E070E07F
:101CB00089EE92E00E94A9206FEB7FE089EE92E02E
:101CC0000C94CD2089E692E00E94E80D68EC70E06B
:101CD00080E090E00E945A232AEF31E030934A02DC
:101CE0002093490285EF91E090934C0280934B0240
:101CF00030932D0220932C029093130280931202B2
:101D000008950F931F93CF93DF9389E692E00E948B
:101D1000161069E672E088E592E00E94521EC9E65C
:101D2000D2E0D0933E02C0933D028EE491E09093C6
:101D30003A02809339028CE691E090933C028093C2
:101D40003B021092510210925202109253021092D2
:101D5000540210925502109257021092400208E06D
:101D6000009341028CE3809342021092430210924E
:101D7000440284E08093450210924602109247028A
:101D80008093480211E01093500210924F0210927B
:101D90004D0210924A021092490210924C02109287
:101DA0004B0269E372E0CE010E948509D0932402C0
:101DB000C093230282E791E09093200280931F0258
:101DC00080E991E0909322028093210210923202E6
:101DD00010923302109234021092350210923602A1
:101DE0001092380210922602009327028CE380930F
:101DF00028021092290210922A0284E080932B027A
:101E0000109331021092300210922E0210922D0285
:101E100010922C026FE172E0CE010E948509D093EE
:101E20000A02C093090286E991E09093060280932A
:101E3000050284EB91E090930802809307021092D0
:101E400018021092190210921A0210921B0210929C
:101E50001C0210921E0210920C0200930D028CE3E1
:101E600080930E0210920F021092100284E0809371
:101E7000110210931702109216021092140210927F
:101E800013021092120265E072E0CE010E948509F1
:101E90001092040288E391E09093FB018093FA0191
:101EA00084E291E09093F6018093F501DF91CF9168
:101EB0001F910F910895CF93DF93D82FC62F69E01C
:101EC00070E089EE92E00E94B5206D2F89EE92E0DD
:101ED0000E944D206C2F89EE92E00E944D2089EEE9
:101EE00092E0DF91CF910C94CA201F93CF93DF93A0
:101EF000162FD42FC0E88D2F817010FD0EC08823BF
:101F0000D9F08091E1026C2F882311F080E00DC0A0
:101F100083EC93E00E9469280FC081110DC080916D
:101F2000E1026C2F882321F081E00E945B0F04C046
:101F300083EC93E00E94D7281695D695CF5FC838DA
:101F4000D1F6DF91CF911F910895642F8091E10226
:101F50006857882319F080E00C945B0F83EC93E0C2
:101F60000C946928642F8091E1026857882319F046
:101F700081E00C945B0F83EC93E00C94D728CF9313
:101F8000DF9389EE92E00E94CE1FEC0189EE92E091
:101F90000E94CE1F682F9E0133272115310549F07D
:101FA0002130310561F483EC93E0DF91CF910C9403
:101FB000D72883EC93E0DF91CF910C946928DF91CF
:101FC000CF910895FC0120812EBDDC019B012150A1
:101FD000310951F011965C9111970DB407FEFDCFB8
:101FE0004EB55EBD4D93F3CFFB013197E80FF91F5E
:101FF0000DB407FEFDCF8EB5808308958EBD000021
:102000000DB407FEFDCF8EB508958091AF038823F0
:1020100061F09FB7F8942091AF038091AD03213018
:1020200019F48DBB9FBF08958FBF0895FC018AEB03
:1020300091E0918380831582108681E081871286EA
:102040009F012E5F3F4F37832683128288E0838370
:102050008CE3848380E090E041E0DF01A80FB91FAA
:102060001D961C921D971E964C931E971F961C92B0
:102070001F971C963C932E931B9705968B349105C6
:1020800061F7EA58FF4F108281E18093E6020895DC
:10209000CF92DF92EF92FF920F931F93CF93DF9334
:1020A0001F92CDB7DEB77C016623B1F18C01C12C44
:1020B000D12CF801EA5AFF4F80819181009719F1E4
:1020C000DC01ED91FC910084F185E02D6983099597
:1020D0006981861318C0F601BB96EE0FFF1FEE0D47
:1020E000FF1D80819181DC01ED91FC910480F581DF
:1020F000E02D0F90DF91CF911F910F91FF90EF9006
:10210000DF90CF900994BFEFCB1ADB0A0E5F1F4F11
:10211000E0E1CE16D10469F680E00F90DF91CF9117
:102120001F910F91FF90EF90DF90CF90089520E0E6
:1021300030E041E0FC01E20FF31F5585561739F0FE
:102140004F5F2B5F3F4F4031A9F780E00895842F08
:102150000895EF92FF921F93CF93DF9300D0CDB7F6
:10216000DEB77C01162F67FD5FC0283008F05CC029
:10217000442331F0DC0115968C91873009F454C06A
:1021800060E0C7012A8349830E9497102A81498110
:10219000882309F449C0E82FF0E0111123C085E03D
:1021A0008E9FD0018F9FB00D1124AE0DBF1D442313
:1021B00059F081E418968C93D70115968C91159758
:1021C0008F5F15968C9303C081E018968C9385E001
:1021D0008E9FD0018F9FB00D1124AE0DBF1D18969C
:1021E0008C9123C0612F6770660F660F660F4423C2
:1021F00061F06064D70115968C9115978F5F1596E5
:102200008C938770687F682B03C02770687B622B74
:1022100085E08E9FD0018F9FB00D1124AE0DBF1DA4
:1022200018966C93862F01C080E00F900F90DF917D
:10223000CF911F91FF90EF900895CF93DF93EC0122
:10224000662359F00E949710882349F09E0145E0CB
:10225000849F200D311D1124C901069602C080E023
:1022600090E0DF91CF910895CF93DF931F92CDB788
:10227000DEB749830E941D114981009789F0DC0176
:10228000ED91FC911197309759F013969C9180E055
:10229000891731F02081241731F033968F5FF8CF02
:1022A00080E090E001C0CF010F90DF91CF910895C1
:1022B000EF92FF921F93CF93DF931F92CDB7DEB7BC
:1022C000162F79012115310569F049830E941D11EE
:1022D000FC014981009741F01283F182E08243833F
:1022E00080E003C088ED01C086ED0F90DF91CF91B3
:1022F0001F91FF90EF9008952E9808951F93CF930C
:10230000DF931F92CDB7DEB7182F80E591E00E94D2
:102310006B090E947C11812F0E94FE0F80E00E94B9
:10232000FE0F89830E946E0D0E94051089810F9017
:10233000DF91CF911F9108951F93CF93DF9300D02A
:102340001F92CDB7DEB7182F80E591E06B830E9416
:102350006B090E947C11126019836B816A8362E0B1
:1023600070E0CE0101960E94E20F0E946E0D0E9465
:1023700005100F900F900F90DF91CF911F9108954E
:102380008F929F92BF92CF92DF92EF92FF920F9324
:102390001F93CF93DF931F92CDB7DEB74C01B62EBC
:1023A000690149830E941D117C014981009709F44C
:1023B00043C0FC0180819181892B09F43FC06B2DC2
:1023C000C4010E943411F601918380830097C1F10A
:1023D000FC01228126952695822F90E0409764F497
:1023E00041E050E060E070E004C0440F551F661FFC
:1023F000771F2A95D2F702C040E050E841505109BA
:10240000F801518340836B2D80EE0E949C1188ED72
:102410000E947E11F7019481992339F0F401EA5862
:10242000FF4F60816260682B02C0682F697F88ED72
:102430000E949C1180E005C086ED03C087ED01C0BD
:102440008BED0F90DF91CF911F910F91FF90EF9047
:10245000DF90CF90BF909F908F9008958F929F9222
:10246000AF92BF92CF92DF92EF92FF920F931F93A2
:10247000CF93DF931F92CDB7DEB7A62E8901498394
:102480000E942B236B017C0188E8C80E83E1D81ED3
:10249000E11CF11C812C912CB12C20E04981A42A53
:1024A00029830E942B236C197D098E099F0929819C
:1024B00097FF2DC06A2D80EF0E949C110E942B2354
:1024C0006C197D098E099F0997FF09C088EC0E944D
:1024D0007E1187FFF3CF60E888EC0E949C1188EFA3
:1024E0000E947E11282F2F70243019F02E3059F0C1
:1024F0000EC0EFEF8E1A9E0A0115110589F28016A3
:10250000910671F604C0B394F3E0BF12C9CF822FD5
:102510000F90DF91CF911F910F91FF90EF90DF907F
:10252000CF90BF90AF909F908F9008959F92AF9261
:10253000BF92CF92DF92EF92FF920F931F93CF93B0
:10254000DF937C01B42E122FAA24A394DC01A60FE2
:10255000B11DA60FB11D6D0186E5C80ED11CC42F9B
:10256000D0E0AB96CC0FDD1FCE0DDF1DD6018D91D7
:102570009C91DC01ED91FC910280F381E02D202FF4
:10258000412F6B2D0995803EC1F4B1100BC061E065
:1025900088EE0E949C1166E670E080E090E00E9468
:1025A0005A2315C088819981DC01ED91FC91028448
:1025B000F385E02D612F09950AC08D3031F48FEF3E
:1025C0008A0D833008F042C017C0811142C0F60165
:1025D00080819181DC01ED91FC910190F081E02DF1
:1025E000202F412F6B2D0995982EBDE08B130CC029
:1025F0008FEF8A0D833050F464E670E080E090E065
:102600000E945A23A394B2CF882311F1B1100BC0BA
:1026100061E088EE0E949C1166E670E080E090E048
:102620000E945A2311C0EB2DF0E0BB96EE0FFF1F66
:10263000EE0DFF1D80819181DC01ED91FC91028402
:10264000F385E02D612F0995892D03C08DE001C030
:1026500080E0DF91CF911F910F91FF90EF90DF907D
:10266000CF90BF90AF909F9008950F931F93CF93FB
:10267000DF93D82FC62F8A0180E591E00E946B0975
:102680000E947C118D2F82600E94FE0FD0E0209767
:1026900021F0BE01C8010E94E20FC00FD11F0E94AD
:1026A0006E0D0E940510CE01DF91CF911F910F9109
:1026B00008952F923F924F925F926F927F928F92E6
:1026C0009F92AF92BF92CF92DF92EF92FF920F93C1
:1026D0001F93CF93DF9300D000D01F92CDB7DEB70A
:1026E0007D836C835A016901FB0121808FEF820D8C
:1026F000803408F06FC00E942B232B013C01F8E8C6
:102700004F0EF3E15F1E611C711CEC81FD81828123
:1027100080FF02C060E801C060E488EE0E949C1166
:1027200020E0312CC114D10409F444C076012C14EA
:102730003D0408F47101EA82A8016E2D80E10E9437
:1027400035136E2D88E30E949C11EC81FD81608120
:10275000606280EF0E949C1188EC0E947E1187FFCE
:10276000FBCF60E888EC0E949C1188EF0E947E11EC
:10277000282F2F70812C912C1982222309F46BC0F1
:102780002B830E942B2364197509860997092B81D5
:1027900097FF61C0263001F12E3009F456C0243075
:1027A00049F4FFEF8F1A9F0AA114B10459F18A145A
:1027B0009B0441F588EF2B830E947E1185FB8827BF
:1027C00080F9EC81FD81928180FB90F992832B81CD
:1027D000822F46C08AED44C088EF0E947E1185FB9F
:1027E000882780F991E08927EC81FD81928180FB27
:1027F00090F9928390FF02C060E801C060E488EE27
:102800000E949C1160E088E30E949C11F8016081A5
:1028100080E10E949C116A8188E30E949C11EC81F6
:10282000FD816081606280EF0E949C1188EC0E94B3
:102830007E1187FFFBCF60E888EC0E949C1188EF37
:102840000E947E11282F2F7098CF89818F5F8983F6
:102850008330C1F6AFCFCE18DF080E0D1F1D62CF3B
:102860000F900F900F900F900F90DF91CF911F91CD
:102870000F91FF90EF90DF90CF90BF90AF909F901F
:102880008F907F906F905F904F903F902F90089522
:102890002F923F924F925F926F927F928F929F9270
:1028A000AF92BF92CF92DF92EF92FF920F931F935E
:1028B000CF93DF93CDB7DEB729970FB6F894DEBF7D
:1028C0000FBECDBF1C01798768875B834A8369018E
:1028D000D9018D909C901197FB01F181F9831D9294
:1028E0001C92DB0112968C9181FF02C060E201C054
:1028F00060E188EE0E949C118E2D90E0A0E0B0E097
:102900008C839D83AE83BF83482C2A813B81A8851D
:10291000B9854C9160E0C1010E942E12F82EB6E0FC
:102920008B1316C088EF0E947E118295817091E012
:102930008927E885F985928180FB91F9928391FF3F
:1029400002C060E201C060E188EE0E949C11DDCF10
:10295000811166C088EC0E947E1182FF5FC080E317
:102960000E947E11582E90E08816990608F4542C87
:10297000D6018D919C91652C712CF401E81BF90B0B
:10298000CF01F7FF02C080E090E053018615970564
:102990000CF45C0180E591E00E946B090E947C11BF
:1029A00088E00E94FE0FA50160E070E0C8010E946F
:1029B0004029A114B10421F0B501C8010E94E20F21
:1029C0000A0D1B1D0E946E0D0E94051064E088EC2C
:1029D0000E949C11D6018D919C911197860D971D97
:1029E0008D939C93B9815B1618F08815990560F05A
:1029F00088EF0E947E1182958170E885F985928129
:102A000080FB91F992830CC0EE2009F47ECF6C819B
:102A10007D818E819F810E945A2377CF30EFF32EE4
:102A20008F2D29960FB6F894DEBF0FBECDBFDF9174
:102A3000CF911F910F91FF90EF90DF90CF90BF90BB
:102A4000AF909F908F907F906F905F904F903F904E
:102A50002F9008952F923F924F925F926F927F92A4
:102A60008F929F92AF92BF92CF92DF92EF92FF929E
:102A70000F931F93CF93DF93CDB7DEB762970FB657
:102A8000F894DEBF0FBECDBF3C01F42E322E202EB7
:102A90005C2D4FA058A4C9A4DAA4188A1F861E86EC
:102AA0001D868E01035F1F4F9E01215F3F4F598B93
:102AB0000E94C0115989811194C039822A82EB8207
:102AC0005C83BE82AD8298868F82AE014F5F5F4F7E
:102AD00068E080E20E9435132D853E854F2D60E130
:102AE000C3010E942E12182F81117AC0232C221CA0
:102AF0002224221CC114D10409F466C0EF85F88990
:102B00008281222009F453C08260828354013324DD
:102B10003394A114B10409F455C05C864B864D85ED
:102B20005E856F857889E12C86019E01255F3F4F88
:102B3000C3010E944814182F8630B1F42F853889BC
:102B400088EF298B3A8B0E947E1185FB882780F9BC
:102B5000832529893A89D90112969C91129780FB85
:102B600091F912969C93D5CF81113AC0EBA5FCA5A3
:102B70003097A1F00190F081E02D0190F081E02DDF
:102B8000C4018A199B099A8789876B857C859E0178
:102B9000275F3F4FA6018BA59CA509958B859C853A
:102BA000A81AB90A8415950508F0B3CF0DC0816045
:102BB00082834D855E8586019201BF01C3010E941B
:102BC0005913182F11110CC02D853E85222011F0AC
:102BD00060EA01C060E84F2DC3010E942E1201C0BF
:102BE000812F62960FB6F894DEBF0FBECDBFDF9186
:102BF000CF911F910F91FF90EF90DF90CF90BF90FA
:102C0000AF909F908F907F906F905F904F903F908C
:102C10002F9008958F929F92AF92BF92CF92EF9292
:102C20000F931F931F921F921F930F933F932F9306
:102C30004901A12CB12CCC24C394E12C06E020E85E
:102C40000E942A150F900F900F900F900F900F90E9
:102C50001F910F91EF90CF90BF90AF909F908F906A
:102C600008958F929F92AF92BF92CF92EF92FF9270
:102C70000F931F921F92FF92EF923F932F93490160
:102C8000A12CB12C52E0C52EE02E06E020E80E94D7
:102C90002A150F900F900F900F900F900F900F919B
:102CA000FF90EF90CF90BF90AF909F908F9008953E
:102CB0003F924F925F926F927F928F929F92AF92CC
:102CC000BF92CF92DF92EF92FF920F931F93CF9319
:102CD000DF93CDB7DEB7C054D1090FB6F894DEBF8D
:102CE0000FBECDBF3C01562E442E322EB02ECE014B
:102CF00001966C017C01022F29E030E0C3010E94A3
:102D0000311681111BC08B809C801F93BF92DF9274
:102D1000CF921F9280E48F93A12CB12C62E0C62E3B
:102D2000E32C06E020E8442D652DC3010E942A15FE
:102D30000F900F900F900F900F900F90C05CDF4F8F
:102D40000FB6F894DEBF0FBECDBFDF91CF911F91BC
:102D50000F91FF90EF90DF90CF90BF90AF909F903A
:102D60008F907F906F905F904F903F9008958F92DB
:102D70009F92AF92BF92CF92EF920F93CF931F92F9
:102D80001F921F921F921F921F92812C912CA12C97
:102D9000B12CC12CE22E05E020E00E942A15C82F9C
:102DA0006CE271E080E090E00E945A230F900F9057
:102DB0000F900F900F900F908C2FCF910F91EF905D
:102DC000CF90BF90AF909F908F9008958F929F92D9
:102DD000AF92BF92CF92EF920F931F921F921F92CA
:102DE0001F921F921F92812C912CA12CB12CC12CCF
:102DF000E22E09E020E00E942A150F900F900F901C
:102E00000F900F900F900F91EF90CF90BF90AF90D9
:102E10009F908F9008958F929F92AF92BF92CF9282
:102E2000DF92EF920F931F93CF93DF9300D000D0E8
:102E3000CDB7DEB76C01590148011C821B821A8292
:102E400019828E010F5F1F4F9E012D5F3F4F0E9421
:102E5000C011811109C049815A816B817C81840133
:102E60009501C6010E9448140F900F900F900F908B
:102E7000DF91CF911F910F91EF90DF90CF90BF9096
:102E8000AF909F908F900895CF92DF92FF920F9313
:102E90001F93CF93DF9300D0CDB7DEB76C016623CD
:102EA00009F442C0062F10E085E0689FB0011124AC
:102EB000F601E60FF71F8085282F277086FF19C0BF
:102EC00031E0E5E0FE2EF601F39EE00DF11D112448
:102ED000808586958695869587708217E1F03F5F9D
:102EE000303188F3F6018581821303C02150F60149
:102EF000258385E0809FF001819FF00D1124EC0D6A
:102F0000FD1D108681E08187128682E0C80ED11CEB
:102F1000D782C68209C0632FC6012A8339830E94E3
:102F200044172A813981CFCF0F900F90DF91CF9135
:102F30001F910F91FF90DF90CF900895CF93DF9373
:102F4000EC016134A1F4FC01855B9F4F41E09E01DF
:102F50002E5F3F4F15864687178634872387359621
:102F6000E817F907B9F71D82DF91CF9108950E9404
:102F70009710682FCE01DF91CF910C9444170F93D7
:102F80001F93CF93DF93EC01022FCA3F8FEFD80737
:102F900011F486ED29C08E819F81892B01F12A874A
:102FA000242F40E0CE010E94A910182F8823C9F0D9
:102FB000682FCE010E941D11009759F3FC01048374
:102FC000212F40E060E0CE010E94B716082F882331
:102FD00051F0612FCE010E949E17802F05C087ED12
:102FE00003C084ED01C080E0DF91CF911F910F916C
:102FF00008952F923F924F925F926F927F928F929D
:103000009F92AF92BF92CF92DF92EF92FF920F9377
:103010001F93CF93DF93CDB7DEB766970FB6F894C3
:10302000DEBF0FBECDBF7C01862E742E922E1B8A72
:1030300088E08C8B8CE38D8BD701ED91FC91019016
:10304000F081E02D60E0C70109956C01009709F45B
:10305000ABC0FC01A080B180CE01439691838083F8
:1030600094828E010F5F1F4F22E130E040E060E06C
:10307000C7010E940A16D601AD92BC928111ACC064
:1030800029843A844B845C84BD81BE8B1E815701A8
:10309000612C6501E6E5CE0ED11CD6018D919C9187
:1030A000009789F1DC01ED91FC910084F185E02D20
:1030B0000995811128C0F60180819181DC01ED9193
:1030C000FC910088F189E02D612F09958823D9F0C2
:1030D000F60180819181DC01ED91FC910484F585FC
:1030E000E02DA201B1010995811160C0F601808136
:1030F0009181DC01ED91FC910684F785E02D6E89CC
:103100000995811153C06394B2E0AB0EB11CE0E1AC
:103110006E12BFCF5701612C6501F6E5CF0ED11CB1
:10312000D6018D919C91009789F1DC01ED91FC9184
:103130000084F185E02D0995811128C0F601808178
:103140009181DC01ED91FC910088F189E02D612FE6
:1031500009958823B1F1F60180819181DC01ED911F
:10316000FC910484F585E02DA201B101099581113E
:103170000DC0F60180819181DC01ED91FC91068406
:10318000F785E02D6E8909958823D9F06394B2E024
:10319000AB0EB11CE0E16E12BFCF292D472D682D7B
:1031A000C7010E94BF1718C086ED16C0092D272D34
:1031B000482D662DC7010E949612813D09F4A3CFC8
:1031C0000BC0092D272D482D662DC7010E94961290
:1031D000982F977F913DD1F266960FB6F894DEBF97
:1031E0000FBECDBFDF91CF911F910F91FF90EF9058
:1031F000DF90CF90BF90AF909F908F907F906F9017
:103200005F904F903F902F900895FF920F931F93E0
:10321000CF93DF93EC011D990EC088EC0E947E11C4
:1032200085FF05C0CE010E94B80D60E201C060E0DC
:1032300088EC0E949C118091F401813051F058F08B
:10324000823029F0833039F5FF24F3940DC0F12C3E
:103250000BC083E106C08091E602807F8031D9F007
:1032600081E18093E60217C08091E602807F803181
:1032700099F40E942B2368537F4F8F4F9F4F609389
:10328000E2027093E3028093E4029093E50280E20D
:103290008093E60201C0F12C00E010E0FE01E00F97
:1032A000F11FEA5AFF4F80819181009739F0DC01CC
:1032B000ED91FC910680F781E02D09950E5F1F4F7F
:1032C0000032110559F78091E602803409F446C0B6
:1032D00070F4803269F18033D9F1813109F088C00E
:1032E000FE01EA58FF4F108200E010E00AC081356D
:1032F00009F45AC0803809F46AC0803509F078C0F2
:103300003CC0FE01E00FF11FEA5AFF4F808191811E
:10331000009739F0DC01ED91FC910480F581E02DFE
:1033200009950E5F1F4F0032110559F782E15EC00B
:103330000E942B230091E2021091E3022091E4020B
:103340003091E502601B710B820B930B97FD50C00F
:1033500061E088EE0E949C1180E448C088EE0E94E3
:103360007E1180FD45C088ED0E947E11682F686047
:1033700088ED0E949C1180E539C088EC0E947E1186
:1033800086FF36C081E58093E6020E942B236C5EA7
:103390007F4F8F4F9F4F6093E2027093E3028093C1
:1033A000E4029093E50224C00E942B230091E202E4
:1033B0001091E3022091E4023091E502601B710B51
:1033C000820B930B97FD14C080E88093E6022F2DAB
:1033D00040E060E0CE010E94F917882331F0823D81
:1033E00039F08093E70280EA01C080E98093E60229
:1033F000DF91CF911F910F91FF9008950F931F932D
:10340000CF93DF93EC012A812170F8018081982FFE
:103410009170291771F0E881F98180FF04C006805E
:10342000F781E02D03C00480F581E02DB801CE01C5
:1034300009952A8126952170F801808181FB9927C1
:1034400090F9291771F0E881F98181FF04C00284A5
:10345000F385E02D03C00084F185E02DB801CE0195
:1034600009952A8122FB222720F9F801808182FB1D
:10347000992790F9291771F0E881F98182FF04C03A
:103480000684F785E02D03C00484F585E02DB8019E
:10349000CE010995F8018181811103C082818823C1
:1034A00041F0E881F9810280F381E02DB801CE017D
:1034B0000995F80180818A83DF91CF911F910F9147
:1034C00008955F926F927F928F929F92AF92BF9278
:1034D000CF92DF92EF92FF920F931F93CF93DF93E0
:1034E000EC014B01D80112968C911297813009F4AE
:1034F0006DC06A814C91641739F0E881F9810480CC
:10350000F581E02DCE0109955801B2E0AB0EB11C5A
:103510007501C12CD12CD7014C913E016C0C7D1C46
:10352000F3013481F50180E090E0512C20E0DE01D0
:10353000A80FB91F14965C91451303C0413009F0E0
:1035400021E05191531304C0313011F055245394AC
:1035500001968630910559F7211113C0E881F98150
:103560000280F381E02DB401CE010995E881F98153
:103570000680F781E02DD7014C91D8016C91CE01E6
:10358000099551100BC0E881F9810084F185E02D87
:10359000D30114964C916A81CE010995BFEFCB1AE5
:1035A000DB0AEFEFEE1AFE0AF6E0CF16D10409F0BF
:1035B000B2CFF80180E090E02191DE01A80FB91FA1
:1035C00012962C93019688309105B1F7DF91CF9137
:1035D0001F910F91FF90EF90DF90CF90BF90AF9031
:1035E0009F908F907F906F905F900895CF93DF931F
:1035F000FC01EA0180819181892B21F580E028C0BE
:1036000088819981892BD1F3DB018D919C91DC011B
:103610005C91238130E0241B310980819181820FEC
:10362000931FDC015C938281815082838881998120
:10363000019799838883DB018D919C911197019665
:103640008D939C9342814111DBCF8381828381E002
:10365000DF91CF9108958F929F92AF92BF92CF92B8
:10366000EF920F93CF93DF93CDB7DEB7C054D1095C
:103670000FB6F894DEBF0FBECDBF5F934F939E0190
:103680002F5F3F4F3F932F931F9220E42F9320E80B
:10369000822E912C5B0132E2C32EE12C06E021E860
:1036A00040E0FC016681848195810E942A150F907B
:1036B0000F900F900F900F900F90C05CDF4F0FB6E0
:1036C000F894DEBF0FBECDBFDF91CF910F91EF9089
:1036D000CF90BF90AF909F908F9008958F929F92C0
:1036E000AF92BF92CF92DF92EF92FF920F938E2C08
:1036F000A42EB12C1F921F92DF92CF92FF92EF92D5
:103700009F2CC22EE02E09E021E2462FFC016681AB
:10371000848195810E942A150F900F900F900F9031
:103720000F900F900F91FF90EF90DF90CF90BF9090
:10373000AF909F908F9008958F929F92AF92BF927B
:10374000CF92EF920F93A62EB12C1F921F921F9231
:103750001F921F921F92812C912CC22EE42E0AE000
:1037600021E240E0FC016681848195810E942A1556
:103770000F900F900F900F900F900F900F91EF9070
:10378000CF90BF90AF909F908F9008958F929F920F
:10379000AF92BF92CF92EF920F93A62EB12C1F92B1
:1037A0001F921F921F921F921F92812C912CC12C4D
:1037B000E42E0BE021E240E0FC01668184819581EA
:1037C0000E942A150F900F900F900F900F900F905E
:1037D0000F91EF90CF90BF90AF909F908F900895F2
:1037E000FC018285089581E0693009F080E0089548
:1037F000CF93DF93EC018A819B81DC01ED91FC91F9
:103800000480F581E02D6A8509958A85813439F433
:10381000EA81FB81EA58FF4F8081846080831A86A9
:103820001B861C861D861E861F86188A80E0DF91F7
:10383000CF9108958F929F92AF92BF92CF92EF92C5
:103840000F93A42EB12CB22A1F921F921F921F9287
:103850001F921F92812C912CC12CE62E01E023E2B5
:1038600040E0FC016285828193810E942A150F90BD
:103870000F900F900F900F900F900F91EF90CF90AF
:10388000BF90AF909F908F9008958F929F92AF922C
:10389000BF92CF92EF920F93A62EB12C1F921F9240
:1038A0003F932F935F934F934A01C12CE12C00E08B
:1038B00023EA40E0FC016285828193810E942A15FF
:1038C0000F900F900F900F900F900F900F91EF901F
:1038D000CF90BF90AF909F908F9008958F929F92BE
:1038E000AF92BF92CF92EF920F93A42EB12CB22A37
:1038F0001F921F921F921F921F921F92812C912C38
:10390000C12CE62E03E023E240E0FC0162858281C7
:1039100093810E942A150F900F900F900F900F9097
:103920000F900F91EF90CF90BF90AF909F908F909E
:1039300008952F923F924F925F926F927F928F9253
:103940009F92AF92BF92CF92DF92EF92FF920F932E
:103950001F93CF93DF93CDB7DEB7E9970FB6F894F7
:10396000DEBF0FBECDBF3C01362E242EDC011296E9
:10397000ED90FC9013971A968C91811103C1D70199
:10398000ED91FC910190F081E02D60E0C70129AF3D
:1039900009956C0129AD009709F4F6C0FC01A080DF
:1039A000B180A114B10409F4F1C04301F4E08F0E19
:1039B000911CDC0111969C928E9214962C93FE0120
:1039C00031962F018F0128E030E040E060E0D30124
:1039D00012968D919C9113970E940A16F6011482FB
:1039E0008111DAC019818D81893009F0D1C0D701E8
:1039F000ED91FC910280F381E02D222D41E0632DB9
:103A0000C7010995F3018287882309F4C3C098850B
:103A10009583282F40E060E0828193810E94B71651
:103A2000082F882391F0D601AD92BC92D701ED9179
:103A3000FC910480F581E02DD3011A966C91C701A9
:103A40000995F3011286102FABC0113208F010E275
:103A5000D601AD92BC9211110BC0940142E0F3016A
:103A60006285828193810E945811811198C011C092
:103A7000212F30E0820140E0D3011A966C911A9711
:103A800012968D919C9113970E940A16811187C0FE
:103A9000E4CF1F921F925F924F921F9288E08F9304
:103AA00088E0882E912CA12CB12C99E2C92EE12C12
:103AB00006E020EA40E0F3016285828193810E9462
:103AC0002A15182F0F900F900F900F900F900F90B6
:103AD000811166C08B81D3011B968C931B97720159
:103AE00000E028E030E040E01A966C911A971296B8
:103AF0008D919C9113970E943116811150C02B819A
:103B00003C8140E0F3016285828193810E943116FD
:103B1000811145C0298130E0CE0181967C0140E0D1
:103B2000D3011A966C911A9712968D919C911397C6
:103B30000E943116811133C02E8140E0F30162856D
:103B4000828193810E94E616811129C001E0D30190
:103B50001B968C911B97801740F020E0402F68E067
:103B6000C3010E946E1C0F5FF2CF1296ED91FC9183
:103B70001397EA58FF4F80818460808381E05096DC
:103B80008C930EC019ED0CC016ED0AC017ED08C0DD
:103B900011ED06C014ED04C0F601B182A082182F09
:103BA000812FE9960FB6F894DEBF0FBECDBFDF912F
:103BB000CF911F910F91FF90EF90DF90CF90BF902A
:103BC000AF909F908F907F906F905F904F903F90BD
:103BD0002F900895BF92CF92DF92EF92FF920F93B2
:103BE0001F93CF93DF9300D000D0CDB7DEB77C0119
:103BF000B62E19821A821B821C8220E0462F61E1B8
:103C00000E941A1C20E04B2D60E1C7010E941A1C83
:103C100020E04B2D64E0C7010E946E1C23E0C22E01
:103C2000D12C9E012F5F3F4F44E050E06B2DC70128
:103C30000E94451C882301F120E04B2D64E1C7015F
:103C40000E941A1C20E04B2D60E1C7010E941A1C43
:103C500064E170E080E090E00E945A230F900F90A2
:103C60000F900F90DF91CF911F910F91FF90EF90E8
:103C7000DF90CF90BF90089509811A812B813C81FC
:103C80001D7F0330114020413105B1F264E670E040
:103C900080E090E00E945A2381E0C81AD10809F020
:103CA000C0CFCACFCF93DF93FC0184EC91E0918326
:103CB0008083738362831286138614861586168624
:103CC0001786108A148288E085839CE3968391E0AE
:103CD0009783808784E0818761157105B9F0CB01F6
:103CE000A0E0B0E0EC01CA5ADF4F28813981232BD4
:103CF00041F49B96AA0FBB1FA60FB71FED93FC9331
:103D000005C011960296A031B10561F7DF91CF9100
:103D10000895DF92EF92FF920F931F93CF93DF935B
:103D2000EC01D62E7A01FA010081118122813381C2
:103D30000130F3E01F07F1E02F073105D1F060F407
:103D40000115E1E01E072E07310571F10130114028
:103D50002140310571F062C0033081E0180780E135
:103D600028073105E1F10330134020413105B9F155
:103D700055C08091E802811151C020E04D2D61E1D4
:103D8000CE010E941A1C20E04D2D60E1CE010E9460
:103D90001A1C20E04D2D64E0CE010E946E1C81E0D3
:103DA0008093E80281EB3BC020E0462F61E1CE0129
:103DB0000E941A1C20E04D2D60E1CE010E941A1CC9
:103DC0001092E8026A8567708D2D8770660F660F06
:103DD000660F682B8A819B810E9448101FC020E0DB
:103DE0004D2D64E1CE010E941A1C20E04D2D60E1B2
:103DF000CE010E941A1C64E170E080E090E00E9415
:103E00005A236A85F70121812695217067704D2D0F
:103E10008A819B810E94F9171092E80280E0DF916D
:103E2000CF911F910F91FF90EF90DF900895CF9267
:103E3000DF92EF920F931F93CF93DF93CDB7DEB74F
:103E40002E970FB6F894DEBF0FBECDBF6C0181E098
:103E500090E09E878D87E12C8E010F5F1F4F9E01A2
:103E6000235F3F4F41E0F6016285828193810E948A
:103E70000B17811151C002E011E089818023D1F03C
:103E800019861A861B861C869E01275F3F4F44E0D9
:103E900050E0612FC6010E94451C81110BC0AE018C
:103EA000475F5F4F612FC6010E94891E813B99F1D8
:103EB000811132C0000F1F5F1830F9F611E0F601D2
:103EC0008385811740F119861A861B861C869E0100
:103ED000275F3F4F44E050E0612FC6010E94451C20
:103EE000811117C089859A858770917081309140C2
:103EF00081F48B859C8581609C878B87AE01475FB1
:103F00005F4F612FC6010E94891E813B21F0811104
:103F100003C01F5FD4CF80E02E960FB6F894DEBFAB
:103F20000FBECDBFDF91CF911F910F91EF90DF902A
:103F3000CF9008950F931F93CF93DF93EC0188895F
:103F40008823F1F00E942B230C851D852E853F854B
:103F5000601B710B820B930B97FD0FC0CE010E946B
:103F6000171F182F0E942B236C597F4F8F4F9F4F85
:103F70006C877D878E879F8701C010E0812F01C0ED
:103F800080E0DF91CF911F910F91089580911D03E3
:103F900090E020911E03821B9109089520911E0339
:103FA00080911D03281750F4E22FF0E0E15EFC4FF2
:103FB000808190E02F5F20931E0308958FEF9FEF85
:103FC0000895E0911E0380911D03E81730F4F0E09E
:103FD000E15EFC4F808190E008958FEF9FEF0895A0
:103FE0000895E091F502F091F6023097E1F03091FA
:103FF0001E0320911D033217B0F040E0242F30E063
:104000002617370754F4DC01A20FB31F5C91D901C6
:10401000A15EBC4F5C934F5FF1CF10921E03609383
:104020001D03CB0109940895E091F702F091F80285
:10403000309729F01092FB021092FA020994089529
:10404000CF92DF92EF92FF920F931F93CF93DF9364
:104050007C01CB018A012091F902222389F0EB0136
:104060006B01C40ED51ECC15DD0569F06991D70131
:10407000ED91FC910190F081E02DC7010995F3CFFE
:10408000642F0E944B21C801DF91CF911F910F91A6
:10409000FF90EF90DF90CF900895CF93DF931F9222
:1040A000CDB7DEB769832091F9022223D1F02091A8
:1040B000FA02203240F021E030E0FC013383228319
:1040C00080E090E015C08091FB02E82FF0E0E45022
:1040D000FD4F998190838F5F8093FB028093FA025A
:1040E00005C061E0CE0101960E944B2181E090E085
:1040F0000F90DF91CF910895FC011382128248EE58
:1041000053E060E070E044835583668377838AEDF3
:1041100091E091838083089510921E0310921D03F5
:104120001092FB021092FA020C94D620CF93DF93E8
:10413000EC01862F0E94F42084E190E20E94692124
:1041400081EF9FE10E946421CE01DF91CF910C9419
:104150008C200C94962081E08093F90260931C03DC
:104160001092FB021092FA0208950C94AB200F9368
:10417000062F21E04091FA026CEF72E080911C035F
:104180000E94F8201092FB021092FA021092F9029B
:104190000F91089561E00C94B7207093F60260933C
:1041A000F502089589EE92E00C947C201092AC0305
:1041B00081E08093AA031092A90361E082E00E944B
:1041C0004E2461E083E00E944E24E9EBF0E0808120
:1041D0008E7F808380818D7F808380E28093B80092
:1041E00085E48093BC000895880F8093BA000895F9
:1041F0000F93413208F046C09091AC039111FCCF6F
:1042000092E09093AC030093AA039FEF90933F0337
:104210001092840340938303FB0165E873E0DB01A4
:104220009A2F961B941718F491919D93F9CF1092A1
:10423000AB039091AB03880F892B8093AB038091E4
:10424000A903813041F41092A9038091AB038093BC
:10425000BB0085EC01C085EE8093BC00222321F0D9
:104260008091AC038230E1F380913F038F3F61F096
:1042700080913F03803251F080913F03803341F4BD
:1042800083E007C081E005C080E003C082E001C098
:1042900084E00F910895613298F42091AC032430AA
:1042A00089F460936103FC0183E693E0DC012A2F2B
:1042B000281B261718F421912D93F9CF80E008953B
:1042C00081E0089582E008959093A6038093A5036A
:1042D00008959093A8038093A703089585ED809394
:1042E000BC008091BC0084FDFCCF1092AC0308950B
:1042F00085EC8093BC001092AC0308951F920F923E
:104300000FB60F9211242F933F934F935F936F93A8
:104310007F938F939F93AF93BF93EF93FF9380917E
:10432000B900887F803609F49CC068F5883209F4AA
:104330005BC090F4803109F454C038F4882309F448
:10434000F5C0883009F44DC0F5C0883109F44CC07F
:10435000803209F45DC0EEC0803409F468C048F4CE
:10436000803309F455C0883309F0E4C080933F03DB
:10437000A8C0803509F44FC0883509F45DC0883481
:1043800009F0D8C0D5C0883909F4C6C0A8F4883768
:1043900009F467C038F4883609F463C0803709F43B
:1043A00060C0C8C0883809F4B7C0803909F45FC05C
:1043B000803809F0BFC05BC0803B09F485C038F489
:1043C000803A09F466C0883A09F47EC0B3C0803CE4
:1043D00009F4A6C0883C09F4A3C0883B09F489C04D
:1043E000A9C08091AB0310C0909184038091830396
:1043F000981770F5E091840381E08E0F8093840319
:10440000F0E0EB57FC4F80818093BB0085EC85C0CA
:1044100080933F038DC0E091840381E08E0F8093F1
:1044200084038091BB00F0E0EB57FC4F80839091B8
:104430008403809183036DC0E091840381E08E0F3B
:10444000809384038091BB00F0E0EB57FC4F8083A6
:104450008091AA0381116CC081E08093A90384EA52
:1044600060C083E08093AC0310924003CFCF809173
:104470004003803208F050C0E091400381E08E0F8D
:10448000809340038091BB00F0E0EF5BFC4F8083A2
:10449000BDCF80914003803230F4E0914003F0E0E2
:1044A000EF5BFC4F10820E946E216091400370E030
:1044B000E091A503F091A60381E493E009951092A1
:1044C00040030E94782136C084E08093AC031092B0
:1044D000620310926103E091A703F091A80309958C
:1044E00080916103811105C081E080936103109286
:1044F0006303E091620381E08E0F80936203F0E03A
:10450000ED59FC4F80818093BB00909162038091B4
:104510006103981708F47ACF85E88093BC000AC03D
:1045200085EC8093BC001092AC0304C010923F0352
:104530000E946E21FF91EF91BF91AF919F918F915A
:104540007F916F915F914F913F912F910F900FBE8F
:104550000F901F901895CF93CFB7F8948091B00328
:10456000811127C0EFE3F1E08491E0E2F1E0949162
:10457000E82FF0E0EE0FFF1FE759FE4FA591B49131
:104580008C91892321F461E081E10E944E2461E055
:1045900081E10E9415248CB580618CBD8CB580644E
:1045A0008CBD61E08FE00E94152461E080E10E94F3
:1045B00015248091B0038F5F8093B003CFBFCF915C
:1045C00008951F920F920FB60F9211242F933F93CD
:1045D0008F939F93AF93BF938091B2039091B30356
:1045E000A091B403B091B5033091B10326E0230F3D
:1045F0002D3720F40296A11DB11D05C029E8230F17
:104600000396A11DB11D2093B1038093B203909333
:10461000B303A093B403B093B5038091B603909114
:10462000B703A091B803B091B9030196A11DB11DC4
:104630008093B6039093B703A093B803B093B903E4
:10464000BF91AF919F918F913F912F910F900FBE8E
:104650000F901F9018952FB7F8946091B203709146
:10466000B3038091B4039091B5032FBF08953FB772
:10467000F8948091B6039091B703A091B803B091DC
:10468000B90326B5A89B05C02F3F19F00196A11DBF
:10469000B11D3FBF6627782F892F9A2F620F711D9A
:1046A000811D911D43E0660F771F881F991F4A9552
:1046B000D1F70895CF92DF92EF92FF92CF93DF93DD
:1046C0006B017C010E943723EB01C114D104E1048A
:1046D000F10489F00E9439290E9437236C1B7D0B5D
:1046E000683E734090F381E0C81AD108E108F108F0
:1046F000C851DC4FEACFDF91CF91FF90EF90DF9070
:10470000CF900895789484B5826084BD84B581602B
:1047100084BD85B5826085BD85B5816085BDEEE6C9
:10472000F0E0808181608083E1E8F0E010828081A8
:1047300082608083808181608083E0E8F0E0808116
:1047400081608083E1E9F0E0808182608083808104
:1047500081608083E0E9F0E0808181608083E1EC2A
:10476000F0E08081846080838081826080838081AA
:1047700081608083E3ECF0E0808181608083E0EC05
:10478000F0E0808182608083E2ECF0E080818160F3
:104790008083EAE7F0E080818460808380818260AA
:1047A000808380818E7F808380818068808308956C
:1047B00090E0FC013197EF30F105B0F5EA5AFF4F78
:1047C0000C943A29809180008F7703C080918000FB
:1047D0008F7D80938000089580918000877FF9CF3E
:1047E00084B58F7702C084B58F7D84BD0895809194
:1047F00090008F7707C0809190008F7D03C08091DB
:104800009000877F8093900008958091C0008F77FB
:1048100003C08091C0008F7D8093C0000895809177
:10482000C200877F8093C2000895CF93DF9390E00A
:10483000FC01E15FFE4F2491FC01E25DFE4F84919B
:10484000882349F190E0880F991FFC01E759FE4F3A
:10485000A591B491855A9E4FFC01C591D4919FB703
:10486000611108C0F8948C91209582238C938881E3
:1048700082230AC0623051F4F8948C91322F309523
:1048800083238C938881822B888304C0F8948C9135
:10489000822B8C939FBFDF91CF9108950F931F932D
:1048A000CF93DF931F92CDB7DEB7282F30E0F90109
:1048B000EF50FF4F8491F901E15FFE4F1491F90130
:1048C000E25DFE4F04910023C9F0882321F0698343
:1048D0000E94D8236981E02FF0E0EE0FFF1FE55A18
:1048E000FE4FA591B4919FB7F8948C91611103C0CC
:1048F0001095812301C0812B8C939FBF0F90DF9176
:10490000CF911F910F910895CF93DF93282F30E01F
:10491000F901EF50FF4F8491F901E15FFE4FD4910F
:10492000F901E25DFE4FC491CC2391F081110E9408
:10493000D823EC2FF0E0EE0FFF1FE35BFE4FA591B5
:10494000B4912C912D2381E090E021F480E002C00D
:1049500080E090E0DF91CF910895CF92DF92EF92C7
:10496000FF920F931F93CF93DF936C017A01EB01BA
:10497000E60EF71E00E010E0CE15DF0561F069914C
:10498000D601ED91FC910190F081E02DC6010995D1
:10499000080F191FF1CFC801DF91CF911F910F911F
:1049A000FF90EF90DF90CF90089508950E948223AA
:1049B0000E94D5248AEB93E00E94B4270E94310E16
:1049C000C0E0D0E00E943B0D2097E1F30E94000080
:1049D000F9CF4091BE035091BF032091BC033091A9
:1049E000BD0342175307B4F49091E8009570E1F3CA
:1049F0009091E80092FD19C08093F1008091BE0370
:104A00009091BF03019687709927892B19F48EEF37
:104A10008093E8008091BE039091BF03019690932C
:104A2000BF038093BE0381E0089580E00895CF9294
:104A3000DF92FF920F931F93CF93DF931F92CDB717
:104A4000DEB7082F162F862F880F8E5F99830E945E
:104A5000E92483E00E94E924F02EC02E9981D92E0A
:104A60008C2D8F19811778F4F60184910E94E92426
:104A7000082F80E00E94E9248023FFEFCF1ADF0A8D
:104A80008111EECF01C081E00F90DF91CF911F9196
:104A90000F91FF90DF90CF900895615030F02091FA
:104AA000F100FC0120830196F8CF289884E68093DA
:104AB000C10308952FB7FC012083F89467706093B9
:104AC000E9000895CF93DF931F92CDB7DEB7682F2B
:104AD000CE0101960E945A259091E800892F80729C
:104AE00095FF04C09091F20080E4891B99819FBFDB
:104AF0000F90DF91CF9108956F927F928F929F9246
:104B0000AF92BF92CF92DF92EF92FF920F931F93DB
:104B1000CF93DF931F92CDB7DEB7782E7B01C42EE3
:104B2000B52E8091C003882369F0042F152F8AEFDA
:104B3000D82E872D8072982E9AE3A92E872D807407
:104B4000882E11C08FEF9FEF57C0872D0E946225DE
:104B5000682E81110CC0DA94A9F361E070E080E066
:104B600090E00E945A230115110579F73BC0282FC8
:104B700030E0021713070CF4602E672DCE0101966A
:104B80000E945A258091E80085FF29C0262D30E03B
:104B9000021B130B992039F06A948FEF6816B1F05D
:104BA0001092F100F9CFF701862D77FE07C08150F2
:104BB00058F094919093F1003196F9CF815020F004
:104BC00091919093F100FACFE20EF31E8091E800EC
:104BD00085FF0FC00115110511F481100AC08981EC
:104BE0008FBFC1CF5D9884E68093C2038C2D9B2D2F
:104BF00003C0A092E800F3CF0F90DF91CF911F91F7
:104C00000F91FF90EF90DF90CF90BF90AF909F906B
:104C10008F907F906F9008951092E9001092BF03DB
:104C20001092BE039093BD038093BC030895CF926E
:104C3000DF92FF920F931F93CF93DF9300D0CDB7F6
:104C4000DEB7F82E8A016B0101151105B1F0F601EE
:104C5000F7FE02C0849101C0808149835A830E947B
:104C6000E92401501109FFEFCF1ADF0A49815A8167
:104C70008111EACF8FEF9FEF01C0CA010F900F9013
:104C8000DF91CF911F910F91FF90DF90CF9008950A
:104C9000CF93DF931F92CDB7DEB71982CE01019675
:104CA0000E94F127898190E00F90DF91CF910895C4
:104CB0001F920F920FB60F921124EF92FF920F9353
:104CC0001F932F933F934F935F936F937F938F9394
:104CD0009F93AF93BF93EF93FF93CF93DF93CDB7A2
:104CE000DEB76297DEBFCDBF1092E9008091E80089
:104CF00083FFDEC068E0CE010A960E944D2582EF58
:104D00008093E8009A8597FF05C08091E80080FFB6
:104D1000FCCF03C08EEF8093E800892F807609F0E6
:104D2000B3C08B85811105C01092F1001092F10083
:104D3000B8C0282F2D7F213009F4B3C0853049F445
:104D40008091E80080FFFCCF8C8580688093E30031
:104D5000A8C0863009F076C02D85E888F988223011
:104D600071F580E090E02A8B0E940C260E94482674
:104D700099E08E010F5F1F4FF801392F11923A957C
:104D8000E9F799832A892A8391E09E8390E898879E
:104D900092E399872091BE033091BF03275F3F4F75
:104DA0003C832B838D83C7010E940C2649E050E091
:104DB000B80180E00E9417260E94482672C0C701F1
:104DC0002A8B0E940C262A89223241F482E290E04A
:104DD0000E940328892B09F064C067C0213069F460
:104DE00088899989089711F42093BB038091BB03AC
:104DF000811118C06BE871E01AC0233009F055C06A
:104E00008C85882391F0823021F462E186EA91E07A
:104E100006C0813009F049C068E08DE991E00E9448
:104E200017253DC069E771E002C069EB71E06115CB
:104E3000710509F43AC0FB01449150E080E80E94FA
:104E400017262FC0873089F1883021F481E08093C4
:104E5000F10027C0893029F5937039F581E08093FE
:104E6000E9008093EB00E8E7F1E0E491E093EC00E7
:104E700086E38093ED008EE78093EA001092EA00CB
:104E80008C858093C0030DC0888999890E940C2667
:104E90008E8581110AC0CE010A960E9416288823A9
:104EA00021F08EEF8093E80003C081E28093EB0055
:104EB00062960FB6F894DEBF0FBECDBFDF91CF91E3
:104EC000FF91EF91BF91AF919F918F917F916F91E2
:104ED0005F914F913F912F911F910F91FF90EF9014
:104EE0000F900FBE0F901F9018951F920F920FB644
:104EF0000F9211248F939F938091E1001092E10013
:104F000083FF0FC01092E90091E09093EB001092A4
:104F1000EC0092E39093ED001092C00398E0909320
:104F2000F00082FF1AC08091C203882339F080917B
:104F3000C20381508093C203882369F08091C1032A
:104F4000882359F08091C10381508093C10381115E
:104F500004C0289A02C05D9AF1CF9F918F910F9063
:104F60000FBE0F901F9018951092C00381E08093A0
:104F7000D70080EA8093D80082E089BD09B400FEA2
:104F8000FDCF61E070E080E090E00E945A2380E96C
:104F90008093D8008CE08093E20084E08093E0006E
:104FA000559A209A0895FF920F931F93CF93DF9302
:104FB000EC01F62EE881F9810480F581E02D099558
:104FC0008C01E881F9810680F781E02D6F2DCE01FB
:104FD0000995C8019927DF91CF911F910F91FF90FB
:104FE0000895FC0120812F5F20830E94480D49E134
:104FF00050E0019719F466E572E002C06DE372E0DB
:1050000080E80C9417260E94480D019729F44DE280
:1050100050E06FE672E004C044E350E06CE972E0F7
:1050200080E80C94172681E40C947C25FC01918186
:105030008081813A31F481E0913091F0933089F4AC
:1050400011C0813271F49B3021F482818093070179
:1050500005C09A3031F482818093060181E0089581
:10506000089580E00895CF93DF9300D000D0CDB7AE
:10507000DEB7FC01808189836A834B832C8344E003
:1050800050E0BE016F5F7F4F81E00E9413280F90B8
:105090000F900F900F90DF91CF910895FC01208128
:1050A000621731F0608320E040E060E00C94332828
:1050B0000895FC012081622B0C944E286095FC0120
:1050C000208162230C944E2848E050E082E00C944A
:1050D0001328CF93DF93DC01683818F0E8E7E60F78
:1050E00025C0E62FF0E067FF11C0E058F10981E02C
:1050F00090E001C0880FEA95EAF714969C91149706
:10510000982B14969C931497E0E010C0E354FE4F44
:10511000E491EE2309F440C0E7FF08C014968C9197
:105120001497826014968C931497EF7716968C914F
:1051300016978E1741F117968C9117978E1719F1C4
:1051400018968C9118978E17F1F019968C911997E3
:105150008E17C9F01A968C911A978E17A1F01B968C
:105160008C911B978E1779F080E090E0ED01C80FCD
:10517000D91F2E81211102C0EE8305C00196863011
:105180009105A1F709C0BD016C5F7F4FCD010E9461
:10519000642881E090E008C081E090E013969C9341
:1051A0008E93129780E090E0DF91CF910895683858
:1051B00018F0E8E7E60F25C0E62FF0E067FF12C021
:1051C000E058F10921E030E001C0220FEA95EAF74A
:1051D0002095DC0114963C911497322314963C934D
:1051E000E0E00FC0E354FE4FE491EE2329F1E7FF26
:1051F00008C0DC0114962C9114972D7F14962C93E3
:10520000EF7720E030E0EE2351F0DC01A20FB31F76
:1052100016964C9116974E1302C016961C922F5F4D
:105220003F4F2630310579F7BC016C5F7F4F0E94FC
:10523000642881E090E0089580E090E00895FC010A
:105240001682178210861186128613861482BC017C
:105250006C5F7F4F0C9464281092CF031092C603AA
:105260001092C5038AEE91E09093C4038093C30328
:1052700008950895EE0FFF1F0590F491E02D099415
:10528000DC0101C06D9341505040E0F70895F8945F
:02529000FFCF4E
:105292000000D0038000010100000000180C000093
:1052A2000000F50A00000000D2090000000013030C
:1052B200000000008F035C03640373036903780337
:1052C2006E037D0300000000611A1403750FA50F21
:1052D200B20F9C019F01A201A50100000000190567
:1052E2009501A3029104BE0297019801C102C60270
:1052F200CB02A801D302D602FEFF00000903000080
:10530200000091069501330223044E029701980191
:10531200510256025B02B10163026602FEFF000007
:105322009902000000000F089501C301B503DE01D8
:1053320097019801E101E601EB01BA01F301F601DF
:10534200FEFF00002902000000001D11A9109E1797
:1053520000000000991C9501F81B9A1FF01BEA1D22
:105362009801F31B9A01000000004D202020C61F67
:10537200CE1FE11FF01F00000000D327AD246928D3
:04538200D7281F29E0
:00000001FF
